:100000004AC08FC3BBC36CC06BC06AC069C068C044
:1000100067C04FC865C010C748C762C061C060C034
:100020005FC05EC05DC074C1A4C186C1A2C1A1C1D0
:10003000F0C018C1FFC016C109C114C11CC12BC139
:1000400042C14EC100000000000000000003040592
:1000500000000000000000000102040810204080A1
:100060000102040810200102040810200404040402
:100070000404040402020202020203030303030352
:10008000000000003800350032000000000037009A
:1000900034003100090811241FBECFE5D4E0DEBFD3
:1000A000CDBF10E0A0E6B0E0E0E1F6E102C00590CF
:1000B0000D92A83BB107D9F711E0A8EBB0E001C061
:1000C0001D92AD37B107E1F710E0C6E9D0E003C0FB
:1000D0002297FE0197DAC439D107D1F74BD496CADB
:1000E0008FCF859B06C08091C7009091C800019674
:1000F00005C08091C7009091C80001979093C800F7
:100100008093C70081E08093C4000895849B06C05B
:100110008091C5009091C600019605C08091C500F0
:100120009091C60001979093C6008093C50081E02E
:100130008093C400089540E052EC61E070E08DECE3
:1001400090E0E9D661E087E0A7D361E089E0A4D33D
:1001500061E088E0A1D361E08AE09ED361E087E0BE
:10016000D3D361E088E0D0D360E082E095D360E053
:1001700085E092D360E083E08FD360E084E08CD3AD
:1001800061E08DE089D343E050E061E770E080E01A
:10019000A9D243E050E066E870E081E0A3D263E6D4
:1001A00070E08DEC90E027D485E115D3BC01882761
:1001B00077FD8095982FEBD82AE038E240EA5BE3A0
:1001C0009AD9AB01BC0122E030E08DEC90E085D5FE
:1001D0006FE670E08DEC90E02AD467E770E08DEC7C
:1001E00090E025D461E08DE08FC38DEC90E088D560
:1001F000181619060CF0C2C08DEC90E0B0D58B97A4
:100200008F30910508F0B5C08D5E9F4F8F939F93FF
:1002100008951092BB001092BA001092B90010928B
:10022000B8001092C8001092C7001092C600109239
:10023000C500089580916000909161002091600058
:10024000309161003195219531091DC08091600088
:10025000909161002091600030916100319521956D
:10026000310939C01092BB001092BA001092B90047
:100270001092B800089580916000909161002091E3
:100280006000309161003093BB002093BA009195DB
:100290008195910938C020916000309161004091B2
:1002A00060005091610081E090E04230510514F40B
:1002B00080E090E09093BB008093BA003093B90047
:1002C0002093B80008958091600090916100209182
:1002D0006000309161003093BB002093BA0013C0DE
:1002E00020916000309161008091600090916100E8
:1002F0009093BB008093BA0081E090E022303105FA
:1003000014F480E090E09093B9008093B8000895D1
:100310008091600090916100863F9F4F04F1809131
:10032000600090916100863F9105E4F48091600047
:10033000909161000A9618C08091600090916100D0
:100340000A976CF080916000909161008A30914032
:100350004CF480916000909161000A9705C080E0A4
:1003600090E002C08FEF90E0909361008093600076
:10037000089560E870E08DEC90E059C308958F9285
:100380009F92AF92BF92CF92DF92EF92FF920F9324
:100390001F93CF93DF936091BA007091BB008827C1
:1003A00077FD8095982FF3D78B01D82FC92FC09058
:1003B000C000D090C100E090C200F090C300A7013F
:1003C0009601DE01712F8B2F9A2F91D8181624F5E4
:1003D0002DEC3CEC4CE45DE3C701B601D5D66B01D6
:1003E0007C01CE01202F312F492F582F6C2D7D2DD0
:1003F0008E2D9F2D2DD787FD03C06801ED2EFC2E7D
:100400008C2D9D2DAE2DBF2D8093C0009093C100EB
:10041000A093C200B093C3008090C0009090C10030
:10042000A090C200B090C300A5019401FE01602F0E
:10043000712F8F2F9C2F0CD787FF25C02DEC3CEC04
:100440004CE45DE3C501B4019ED66B017C01CE0195
:10045000202F312F492F5C2F6C2D7D2D8E2D9F2D20
:1004600046D818161CF48601DE2DCF2D9E01802F54
:10047000912FA32FBC2F8093C0009093C100A09315
:10048000C200B093C3006091B8007091B900882792
:1004900077FD8095982F7BD78B01D82FC92FC090DF
:1004A000BC00D090BD00E090BE00F090BF00A7015E
:1004B0009601DE01712F8B2F9A2F19D8181624F56B
:1004C0002DEC3CEC4CE45DE3C701B6015DD66B015D
:1004D0007C01CE01202F312F492F582F6C2D7D2DDF
:1004E0008E2D9F2DB5D687FD03C06801ED2EFC2E05
:1004F0008C2D9D2DAE2DBF2D8093BC009093BD0003
:10050000A093BE00B093BF008090BC009090BD004F
:10051000A090BE00B090BF00A5019401FE01602F25
:10052000712F8F2F9C2F94D687FF25C02DEC3CEC8C
:100530004CE45DE3C501B40126D66B017C01CE011C
:10054000202F312F492F5C2F6C2D7D2D8E2D9F2D2F
:10055000CED718161CF48601DE2DCF2D9E01802FDC
:10056000912FA32FBC2F8093BC009093BD00A0932C
:10057000BE00B093BF00C1E020E030E0A90160916F
:10058000C0007091C1008091C2009091C300AFD7AC
:1005900018160CF0C0E061E06C2787E0B5D1C1E02F
:1005A00020E030E0A9016091BC007091BD00809115
:1005B000BE009091BF009BD718160CF0C0E061E020
:1005C0006C2788E0A1D1C090C000D090C100E0901D
:1005D000C200F090C30020E030E0A901C701B601DD
:1005E00086D718161CF4C701B60103C0C701B601AF
:1005F00090589AD689E007D1C090BC00D090BD0039
:10060000E090BE00F090BF0020E030E0A901C701FB
:10061000B6016DD718161CF4C701B60103C0C70197
:10062000B601905881D68AE0DF91CF911F910F914A
:10063000FF90EF90DF90CF90BF90AF909F908F9002
:10064000E2C08091C400882309F448C061E08DE0D5
:100650005BD11092C40064E970E08DEC90E0CBD1E6
:100660006091C7007091C8004AE050E08DEC90E0C6
:1006700092D267E970E08DEC90E0BDD16091C50049
:100680007091C6004AE050E08DEC90E084D26CE9B5
:1006900070E08DEC90E0AFD14091C0005091C1006E
:1006A0006091C2007091C30022E030E08DEC90E0D8
:1006B00014D362EA70E08DEC90E09DD14091BC00D3
:1006C0005091BD006091BE007091BF0022E030E00B
:1006D0008DEC90E003D360E08DE016C1089585DDD8
:1006E000B0DF4DCE8230E0F4E82FF0E0EE0FFF1FD8
:1006F000E753FF4F71836083813039F085B78C7F7A
:10070000842B85BF8BB780640AC085B7440F551F03
:10071000440F551F837F842B85BF8BB780688BBFA9
:1007200008951F920F920FB60F9211242F933F93AB
:100730004F935F936F937F938F939F93AF93BF93E9
:10074000EF93FF938091C9009091CA00892B29F003
:10075000E091C900F091CA000995FF91EF91BF9116
:10076000AF919F918F917F916F915F914F913F9149
:100770002F910F900FBE0F901F9018951F920F9200
:100780000FB60F9211242F933F934F935F936F9364
:100790007F938F939F93AF93BF93EF93FF9380913A
:1007A000CB009091CC00892B29F0E091CB00F09107
:1007B000CC000995FF91EF91BF91AF919F918F91DF
:1007C0007F916F915F914F913F912F910F900FBE4D
:1007D0000F901F9018958E3008F08E5087702091E2
:1007E000620040E4249F90011124822B87B9369A3D
:1007F0003699FECF24B135B1932F80E0AC01422B66
:100800009A01C90108951F93CF93DF93182FEB012D
:1008100061E042D0209711F460E004C0CF3FD105E1
:1008200031F461E0812FDF91CF911F916DC0E12FF5
:10083000F0E0EC5BFF4FE491E43051F0E53071F013
:10084000E33089F48FB580688FBDDBBDCABD0FC0B2
:100850008FB580628FBDD9BDC8BD09C085B5806226
:1008600085BDC3BD04C0C038D105DCF6D5CFDF914E
:10087000CF911F910895843039F0853049F083304D
:1008800051F48FB58F7702C08FB58F7D8FBD0895DE
:1008900085B58F7D85BD0895CF93DF9390E0FC01F2
:1008A000E85AFF4F4491FC01E459FF4F849188239B
:1008B00041F190E0880F991FFC01E657FF4F259109
:1008C0003491D90180589F4FFC0185919491C82F94
:1008D000D92F9FB7F8948C91611106C0409584235D
:1008E0008C938881842308C0623041F4242F2095A2
:1008F00082238C938881842B888302C0842B8C93E1
:100900009FBFDF91CF9108950F931F93CF93DF93F4
:100910001F92CDB7DEB7282F30E0F901EC5BFF4F17
:100920008491F901E85AFF4F1491F901E459FF4FFE
:1009300004910023C9F0882319F069839CDF698141
:10094000E02FF0E0EE0FFF1FE058FF4F85919491EC
:10095000DC019FB7F8948C91611103C0109581233D
:1009600001C0812B8C939FBF0F90DF91CF911F917E
:100970000F910895E8D3DFDBCEE4D7E0B0DE209717
:10098000E9F38CD2FBCFCF92DF92EF92FF920F93DD
:100990001F93CF93DF936C01EB017A01E60EF71EF4
:1009A00000E010E00BC06991D601ED91FC9101903F
:1009B000F081E02DC6010995080F191FCE15DF053E
:1009C00091F7C801DF91CF911F910F91FF90EF90A8
:1009D000DF90CF900895DB010D900020E9F7AD0185
:1009E00041505109461B570BDC01ED91FC910280EF
:1009F000F381E02D0994EFCFDC01ED91FC910190A2
:100A0000F081E02D09940F931F93CF93DF93EC01B6
:100A10006DE0F2DF8C016AE0CE01EEDF9C01200F79
:100A2000311FC901DF91CF911F910F9108950F934D
:100A30001F93CF93DF93EC01CEDF8C01CE01E3DF78
:100A40009801280F391FC901DF91CF911F910F9194
:100A500008954F925F926F927F929F92AF92BF9252
:100A6000CF92DF92EF92FF920F931F93CF93DF937A
:100A7000CDB7DEB7A1970FB6F894DEBF0FBECDBFDE
:100A80005C016A017B01922E19A281E0821710F0AD
:100A90008AE0982E8E010F5D1F4F492C512C612C3E
:100AA000712CC701B601A301920188D58C2D929EAD
:100AB00080191124015011098A3014F4805D01C09D
:100AC000895CF801808369017A01C114D104E104D1
:100AD000F10439F7B801C5017EDFA1960FB6F8948D
:100AE000DEBF0FBECDBFDF91CF911F910F91FF9061
:100AF000EF90DF90CF90BF90AF909F907F906F90DE
:100B00005F904F900895CF92DF92EF92FF920F93F4
:100B10001F93CF93DF93EC016A017B01211531050F
:100B200079F4E881F9810190F081E02D642FDF9163
:100B3000CF911F910F91FF90EF90DF90CF9009948C
:100B40002A30310519F477FD0DC02AE0B701A6015E
:100B5000CE01DF91CF911F910F91FF90EF90DF9029
:100B6000CF9077CF6DE248DF8C0144275527BA013B
:100B70004C195D096E097F092AE0CE016ADF080F72
:100B8000191FC801DF91CF911F910F91FF90EF9036
:100B9000DF90CF9008959A01AB01662757FD6095CD
:100BA000762FB1CF7F928F929F92AF92BF92CF92CA
:100BB000DF92EF92FF920F931F93CF93DF938C01FD
:100BC0004A015B01F22E20E030E0A901C501B40129
:100BD0003FD387FF09C06DE2C8010EDFEC01B7FA11
:100BE000B094B7F8B09402C0C0E0D0E0E12C60E06F
:100BF00070E080E09FE306C020E030E040E251E496
:100C00002BD3E394EF10F8CF262F372F482F592FEF
:100C1000C501B401B9D2762E872E982EA92E89D37C
:100C2000B62EC72ED82EE92EB0D39B01AC01672D6E
:100C3000782D892D9A2DA7D2A62E972E882E792E23
:100C40002AE04B2D5C2D6D2D7E2DC80102DFC80FD3
:100C5000D91FFF2089F16EE770E0C801BCDEC80F24
:100C6000D91F2AC020E030E040E251E46A2D792DFE
:100C7000882D972D40D4762EC72ED82EE92E54D30A
:100C80004B01AA2497FCA094BA2C2AE030E0B501CD
:100C9000A401C80138DFC80FD91FC501B40177D33B
:100CA0009B01AC01672D7C2D8D2D9E2D6CD2A62E27
:100CB000972E882E792EFA94F110D4CFCE01DF91A1
:100CC000CF911F910F91FF90EF90DF90CF90BF9049
:100CD000AF909F908F907F90089564CF0F931F9354
:100CE000CF93DF93EC015EDF8C01CE018CDE9801A7
:100CF000280F391FC901DF91CF911F910F910895DE
:100D0000FC0184859585FC01E05CFF4F20813181E9
:100D1000FC01EE5BFF4F80819181281B390B2F7303
:100D20003327C9010895FC0184859585FC01E05CA9
:100D3000FF4F40815181FC01EE5BFF4F20813181EB
:100D40004217530741F00190F081E02DE80FF91FA1
:100D5000208130E002C02FEF3FEFC9010895FC0170
:100D600084859585FC01E05CFF4F40815181FC0149
:100D7000EE5BFF4F208131814217530781F0A08144
:100D8000B181A80FB91F8C91208131812F5F3F4F16
:100D90002F73332731832083282F30E002C02FEFB9
:100DA0003FEFC9010895FC0186859785FC01E05C51
:100DB000FF4FDC01AE5BBF4F408151812D913C91D3
:100DC000119742175307C1F70895CF93DF93FC01A2
:100DD00086859785DC01A05CBF4F2D913C911197D2
:100DE0002F5F3F4F2F733327EC01CE5BDF4F4881DE
:100DF000598124173507D9F30D90BC91A02DA80F68
:100E0000B91F6C93A685B785A05CBF4F11963C9324
:100E10002E93A689B7892C9181E090E0058C02C0C1
:100E2000880F991F0A94E2F7282B2C9381E090E019
:100E3000DF91CF91089508951F920F920FB60F92F0
:100E400011242F933F934F938F939F93EF93FF938F
:100E50004CB1809170019091710101968F73992727
:100E600020917201309173018217930759F0E0913C
:100E70007001F0917101E05DFE4F4083909371012C
:100E800080937001FF91EF919F918F914F913F91CE
:100E90002F910F900FBE0F901F9018958DEC90E042
:100EA0002FDF892B09F0C7CF08951F920F920FB63D
:100EB0000F9211242F933F938F939F93EF93FF9360
:100EC00020912C0130912D0180912E0190912F01C4
:100ED0002817390711F4559813C0E0912E01F091AD
:100EE0002F01E451FF4F208180912E0190912F011D
:100EF00001968F73992790932F0180932E012CB91F
:100F0000FF91EF919F918F913F912F910F900FBE85
:100F10000F901F901895CF92DF92EF92FF92CF9390
:100F2000DF93EC016A017B01411581EE58076105F1
:100F30007105F1F0EC89FD8981E090E00E8C02C032
:100F4000880F991F0A94E2F7808360E079E08DE3CF
:100F500090E0A701960132D321503109410951098E
:100F60005695479537952795211580E1380790F0DC
:100F7000EC89FD89108260E874E88EE190E0A701B9
:100F800096011CD3215031094109510956954795C5
:100F900037952795E889F9893083EA89FB89208389
:100FA000EE89FF89408181E090E09C010A8C02C0BB
:100FB000220F331F0A94E2F7422B4083EE89FF8908
:100FC00040819C010B8C02C0220F331F0A94E2F770
:100FD000422B4083EE89FF8940819C010C8C02C02A
:100FE000220F331F0A94E2F7422B4083EE89FF89D8
:100FF00020810D8C02C0880F991F0A94E2F780951A
:1010000082238083DF91CF91FF90EF90DF90CF908C
:1010100008951092D0001092CF0088EE93E0A0E0E7
:10102000B0E08093D1009093D200A093D300B0930E
:10103000D4008CEA90E09093CE008093CD0080E3C2
:1010400091E09093DA008093D9008CEE90E0909339
:10105000DC008093DB0080E490E09093DE008093DE
:10106000DD0089E290E09093E0008093DF008BE266
:1010700090E09093E2008093E1008AE290E0909308
:10108000E4008093E3008CE290E09093E60080938C
:10109000E50084E08093E70083E08093E80087E048
:1010A0008093E90085E08093EA0081E08093EB0083
:1010B00008951F920F920FB60F9211242F933F9312
:1010C0008F939F93AF93BF9380917401909175011B
:1010D000A0917601B091770130917C01232F2D5F93
:1010E0002D3720F40196A11DB11D05C0232F2A57CD
:1010F0000296A11DB11D20937C01809374019093F1
:101100007501A0937601B093770180917801909159
:101110007901A0917A01B0917B010196A11DB11DC9
:101120008093780190937901A0937A01B0937B0129
:10113000BF91AF919F918F913F912F910F900FBED3
:101140000F901F901895789483B7826083BF83B700
:10115000816083BF89B7816089BF1EBC8EB5826004
:101160008EBD8EB581608EBD8FB581608FBD85B51A
:10117000846085BD85B5806485BD329A319A309A88
:10118000379A1AB808955058BB27AA270ED075C1B0
:1011900066D130F06BD120F031F49F3F11F41EF492
:1011A0005BC10EF4E095E7FB51C1E92F77D180F3E5
:1011B000BA17620773078407950718F071F49EF554
:1011C0008FC10EF4E0950B2EBA2FA02D0B01B901A3
:1011D00090010C01CA01A0011124FF27591B99F0AD
:1011E000593F50F4503E68F11A16F040A22F232FB9
:1011F000342F4427585FF3CF469537952795A79509
:10120000F0405395C9F77EF41F16BA0B620B730BAF
:10121000840BBAF09150A1F0FF0FBB1F661F771F20
:10122000881FC2F70EC0BA0F621F731F841F48F4D5
:10123000879577956795B795F7959E3F08F0B3CF5B
:101240009395880F08F09927EE0F97958795089545
:10125000D9D008F481E008950CD00FC107D140F037
:10126000FED030F021F45F3F19F0F0C0511139C1C8
:10127000F3C014D198F39923C9F35523B1F3951B07
:10128000550BBB27AA2762177307840738F09F5FA7
:101290005F4F220F331F441FAA1FA9F333D00E2E16
:1012A0003AF0E0E830D091505040E695001CCAF783
:1012B00029D0FE2F27D0660F771F881FBB1F261748
:1012C00037074807AB07B0E809F0BB0B802DBF011B
:1012D000FF2793585F4F2AF09E3F510568F0B6C034
:1012E00000C15F3FECF3983EDCF3869577956795F8
:1012F000B795F7959F5FC9F7880F911D96958795CC
:1013000097F90895E1E0660F771F881FBB1F6217EA
:1013100073078407BA0720F0621B730B840BBA0BA8
:10132000EE1F88F7E095089504D06894B111D9C0F4
:101330000895BCD088F09F5790F0B92F9927B751E6
:10134000A0F0D1F0660F771F881F991F1AF0BA9589
:10135000C9F712C0B13081F0C3D0B1E00895C0C068
:10136000672F782F8827B85F39F0B93FCCF386957F
:1013700077956795B395D9F73EF4909580957095DC
:1013800061957F4F8F4F9F4F0895E89409C097FB59
:101390003EF490958095709561957F4F8F4F9F4F4C
:1013A0009923A9F0F92F96E9BB279395F695879590
:1013B00077956795B795F111F8CFFAF4BB0F11F453
:1013C00060FF1BC06F5F7F4F8F4F9F4F16C08823FA
:1013D00011F096E911C0772321F09EE8872F762F30
:1013E00005C0662371F096E8862F70E060E02AF071
:1013F0009A95660F771F881FDAF7880F969587955D
:1014000097F90895990F0008550FAA0BE0E8FEEF31
:1014100016161706E807F907C0F012161306E407B8
:10142000F50798F0621B730B840B950B39F40A26B1
:1014300061F0232B242B252B21F408950A2609F48F
:10144000A140A6958FEF811D811D089597F99F6793
:1014500080E870E060E008959FEF80EC089500243C
:101460000A941616170618060906089500240A9409
:1014700012161306140605060895092E0394000C8F
:1014800011F4882352F0BB0F40F4BF2B11F460FF1E
:1014900004C06F5F7F4F8F4F9F4F089557FD905847
:1014A000440F551F59F05F3F71F04795880F97FB28
:1014B000991F61F09F3F79F08795089512161306E2
:1014C0001406551FF2CF4695F1DF08C01616170611
:1014D0001806991FF1CF8695710561050894089546
:1014E000E894BB2766277727CB0197F908958ADF11
:1014F00008F48FEF08950BD0C0CFB1DF28F0B6DF2E
:1015000018F0952309F0A2CFA7CF1124EACFC6DFA8
:10151000A0F3959FD1F3950F50E0551F629FF00106
:10152000729FBB27F00DB11D639FAA27F00DB11D5F
:10153000AA1F649F6627B00DA11D661F829F2227E8
:10154000B00DA11D621F739FB00DA11D621F839F6F
:10155000A00D611D221F749F3327A00D611D231F45
:10156000849F600D211D822F762F6A2F11249F5793
:1015700050408AF0E1F088234AF0EE0FFF1FBB1FB6
:10158000661F771F881F91505040A9F79E3F510555
:1015900070F05CCFA6CF5F3FECF3983EDCF386950E
:1015A00077956795B795F795E7959F5FC1F7FE2B00
:1015B000880F911D9695879597F90895A1E21A2EA7
:1015C000AA1BBB1BFD010DC0AA1FBB1FEE1FFF1FE7
:1015D000A217B307E407F50720F0A21BB30BE40B37
:1015E000F50B661F771F881F991F1A9469F760957E
:1015F0007095809590959B01AC01BD01CF01089538
:10160000EE0FFF1F0590F491E02D0994F894FFCFA1
:10161000FF00014261747465726965203A20002000
:10162000766F6C74732E0072656164792E2E2E00B5
:10163000636F6D6D616E646520696E636F6E6E754C
:10164000652021004C3A002020523A002020766785
:101650003A00202076643A0000000000E506C3044A
:081660008006AF069306D306D5
:00000001FF
